{
  "contractName": "Election",
  "abi": [
    {
      "inputs": [],
      "stateMutability": "nonpayable",
      "type": "constructor"
    },
    {
      "anonymous": false,
      "inputs": [
        {
          "indexed": true,
          "internalType": "uint256",
          "name": "_candidateId",
          "type": "uint256"
        }
      ],
      "name": "Voted",
      "type": "event"
    },
    {
      "inputs": [],
      "name": "candidatesCount",
      "outputs": [
        {
          "internalType": "uint256",
          "name": "",
          "type": "uint256"
        }
      ],
      "stateMutability": "view",
      "type": "function",
      "constant": true
    },
    {
      "inputs": [],
      "name": "electionState",
      "outputs": [
        {
          "internalType": "enum Election.State",
          "name": "",
          "type": "uint8"
        }
      ],
      "stateMutability": "view",
      "type": "function",
      "constant": true
    },
    {
      "inputs": [],
      "name": "owner",
      "outputs": [
        {
          "internalType": "address",
          "name": "",
          "type": "address"
        }
      ],
      "stateMutability": "view",
      "type": "function",
      "constant": true
    },
    {
      "inputs": [],
      "name": "votersCount",
      "outputs": [
        {
          "internalType": "uint256",
          "name": "",
          "type": "uint256"
        }
      ],
      "stateMutability": "view",
      "type": "function",
      "constant": true
    },
    {
      "inputs": [],
      "name": "startElection",
      "outputs": [],
      "stateMutability": "nonpayable",
      "type": "function"
    },
    {
      "inputs": [],
      "name": "endElection",
      "outputs": [],
      "stateMutability": "nonpayable",
      "type": "function"
    },
    {
      "inputs": [
        {
          "internalType": "string",
          "name": "_name",
          "type": "string"
        }
      ],
      "name": "addCandidate",
      "outputs": [],
      "stateMutability": "nonpayable",
      "type": "function"
    },
    {
      "inputs": [
        {
          "internalType": "address",
          "name": "_voter",
          "type": "address"
        }
      ],
      "name": "addVoter",
      "outputs": [],
      "stateMutability": "nonpayable",
      "type": "function"
    },
    {
      "inputs": [
        {
          "internalType": "address",
          "name": "_current",
          "type": "address"
        }
      ],
      "name": "getRole",
      "outputs": [
        {
          "internalType": "uint256",
          "name": "",
          "type": "uint256"
        }
      ],
      "stateMutability": "view",
      "type": "function",
      "constant": true
    },
    {
      "inputs": [
        {
          "internalType": "uint256",
          "name": "_candidateId",
          "type": "uint256"
        }
      ],
      "name": "vote",
      "outputs": [],
      "stateMutability": "nonpayable",
      "type": "function"
    },
    {
      "inputs": [
        {
          "internalType": "address",
          "name": "add",
          "type": "address"
        }
      ],
      "name": "getVotedCand",
      "outputs": [
        {
          "internalType": "uint256",
          "name": "",
          "type": "uint256"
        }
      ],
      "stateMutability": "view",
      "type": "function",
      "constant": true
    },
    {
      "inputs": [
        {
          "internalType": "uint256",
          "name": "_candidateId",
          "type": "uint256"
        }
      ],
      "name": "getCandidateDetails",
      "outputs": [
        {
          "internalType": "string",
          "name": "",
          "type": "string"
        },
        {
          "internalType": "uint256",
          "name": "",
          "type": "uint256"
        }
      ],
      "stateMutability": "view",
      "type": "function",
      "constant": true
    }
  ],
  "bytecode": "0x6080604052600060055560006006553480156200001b57600080fd5b50336000806101000a81548173ffffffffffffffffffffffffffffffffffffffff021916908373ffffffffffffffffffffffffffffffffffffffff16021790555060008060146101000a81548160ff02191690836002811115620000845762000083620005ec565b5b0217905550620000cf6040518060400160405280600381526020017f424a500000000000000000000000000000000000000000000000000000000000815250620001ab60201b60201c565b620001156040518060400160405280600381526020017f494e430000000000000000000000000000000000000000000000000000000000815250620001ab60201b60201c565b6200015b6040518060400160405280600381526020017f4141500000000000000000000000000000000000000000000000000000000000815250620001ab60201b60201c565b62000180738ec848db2d53f323b6daf1aa934f972210d593776200034160201b60201c565b620001a5739a6679ba52897401a44d736fae313dcd2eaab3d86200034160201b60201c565b62000976565b3373ffffffffffffffffffffffffffffffffffffffff1660008054906101000a900473ffffffffffffffffffffffffffffffffffffffff1673ffffffffffffffffffffffffffffffffffffffff16146200023c576040517f08c379a000000000000000000000000000000000000000000000000000000000815260040162000233906200067c565b60405180910390fd5b60006002811115620002535762000252620005ec565b5b600060149054906101000a900460ff166002811115620002785762000277620005ec565b5b14620002bb576040517f08c379a0000000000000000000000000000000000000000000000000000000008152600401620002b290620006ee565b60405180910390fd5b604051806060016040528060055481526020018281526020016000815250600160006005548152602001908152602001600020600082015181600001556020820151816001019080519060200190620003169291906200053c565b506040820151816002015590505060056000815480929190620003399062000749565b919050555050565b3373ffffffffffffffffffffffffffffffffffffffff1660008054906101000a900473ffffffffffffffffffffffffffffffffffffffff1673ffffffffffffffffffffffffffffffffffffffff1614620003d2576040517f08c379a0000000000000000000000000000000000000000000000000000000008152600401620003c990620007e6565b60405180910390fd5b600360008273ffffffffffffffffffffffffffffffffffffffff1673ffffffffffffffffffffffffffffffffffffffff16815260200190815260200160002060009054906101000a900460ff161562000462576040517f08c379a0000000000000000000000000000000000000000000000000000000008152600401620004599062000858565b60405180910390fd5b60006002811115620004795762000478620005ec565b5b600060149054906101000a900460ff1660028111156200049e576200049d620005ec565b5b14620004e1576040517f08c379a0000000000000000000000000000000000000000000000000000000008152600401620004d890620008f0565b60405180910390fd5b6001600360008373ffffffffffffffffffffffffffffffffffffffff1673ffffffffffffffffffffffffffffffffffffffff16815260200190815260200160002060006101000a81548160ff02191690831515021790555050565b8280546200054a9062000941565b90600052602060002090601f0160209004810192826200056e5760008555620005ba565b82601f106200058957805160ff1916838001178555620005ba565b82800160010185558215620005ba579182015b82811115620005b95782518255916020019190600101906200059c565b5b509050620005c99190620005cd565b5090565b5b80821115620005e8576000816000905550600101620005ce565b5090565b7f4e487b7100000000000000000000000000000000000000000000000000000000600052602160045260246000fd5b600082825260208201905092915050565b7f4f6e6c79206f776e65722063616e206164642063616e64696461746573000000600082015250565b600062000664601d836200061b565b915062000671826200062c565b602082019050919050565b60006020820190508181036000830152620006978162000655565b9050919050565b7f456c656374696f6e2068617320616c7265616479207374617274656400000000600082015250565b6000620006d6601c836200061b565b9150620006e3826200069e565b602082019050919050565b600060208201905081810360008301526200070981620006c7565b9050919050565b7f4e487b7100000000000000000000000000000000000000000000000000000000600052601160045260246000fd5b6000819050919050565b600062000756826200073f565b91507fffffffffffffffffffffffffffffffffffffffffffffffffffffffffffffffff82036200078b576200078a62000710565b5b600182019050919050565b7f4f6e6c79206f776e65722063616e2061646420766f7465720000000000000000600082015250565b6000620007ce6018836200061b565b9150620007db8262000796565b602082019050919050565b600060208201905081810360008301526200080181620007bf565b9050919050565b7f566f74657220616c726561647920616464656400000000000000000000000000600082015250565b6000620008406013836200061b565b91506200084d8262000808565b602082019050919050565b60006020820190508181036000830152620008738162000831565b9050919050565b7f566f7465722063616e277420626520616464656420616674657220656c65637460008201527f696f6e2073746172746564000000000000000000000000000000000000000000602082015250565b6000620008d8602b836200061b565b9150620008e5826200087a565b604082019050919050565b600060208201905081810360008301526200090b81620008c9565b9050919050565b7f4e487b7100000000000000000000000000000000000000000000000000000000600052602260045260246000fd5b600060028204905060018216806200095a57607f821691505b60208210810362000970576200096f62000912565b5b50919050565b61163480620009866000396000f3fe608060405234801561001057600080fd5b50600436106100b45760003560e01c8063462e91ec11610071578063462e91ec146101a257806359f78468146101be57806362d73eb8146101c85780638da5cb5b146101d257806398c07938146101f0578063f4ab9adf1461020e576100b4565b80630121b93f146100b95780632280043d146100d557806327f9fd50146100f35780632d35a8a2146101245780633a0d1dde146101425780634427673314610172575b600080fd5b6100d360048036038101906100ce9190610d50565b61022a565b005b6100dd610502565b6040516100ea9190610df4565b60405180910390f35b61010d60048036038101906101089190610d50565b610515565b60405161011b929190610eb7565b60405180910390f35b61012c61062b565b6040516101399190610ee7565b60405180910390f35b61015c60048036038101906101579190610f60565b610631565b6040516101699190610ee7565b60405180910390f35b61018c60048036038101906101879190610f60565b61067a565b6040516101999190610ee7565b60405180910390f35b6101bc60048036038101906101b791906110c2565b61073d565b005b6101c66108c3565b005b6101d0610988565b005b6101da610a4d565b6040516101e7919061111a565b60405180910390f35b6101f8610a71565b6040516102059190610ee7565b60405180910390f35b61022860048036038101906102239190610f60565b610a77565b005b6001600281111561023e5761023d610d7d565b5b600060149054906101000a900460ff1660028111156102605761025f610d7d565b5b146102a0576040517f08c379a000000000000000000000000000000000000000000000000000000000815260040161029790611181565b60405180910390fd5b600360003373ffffffffffffffffffffffffffffffffffffffff1673ffffffffffffffffffffffffffffffffffffffff16815260200190815260200160002060009054906101000a900460ff1661032c576040517f08c379a0000000000000000000000000000000000000000000000000000000008152600401610323906111ed565b60405180910390fd5b600260003373ffffffffffffffffffffffffffffffffffffffff1673ffffffffffffffffffffffffffffffffffffffff16815260200190815260200160002060009054906101000a900460ff16156103b9576040517f08c379a00000000000000000000000000000000000000000000000000000000081526004016103b090611259565b60405180910390fd5b600081101580156103cb575060055481105b61040a576040517f08c379a0000000000000000000000000000000000000000000000000000000008152600401610401906112c5565b60405180910390fd5b60016000828152602001908152602001600020600201600081548092919061043190611314565b91905055506001600260003373ffffffffffffffffffffffffffffffffffffffff1673ffffffffffffffffffffffffffffffffffffffff16815260200190815260200160002060006101000a81548160ff02191690831515021790555080600460003373ffffffffffffffffffffffffffffffffffffffff1673ffffffffffffffffffffffffffffffffffffffff16815260200190815260200160002081905550807f7f511e347bf51eed3be100b3194247d5207f05f3b33de7d31e3e8ee73199a04960405160405180910390a250565b600060149054906101000a900460ff1681565b6060600080831015801561052a575060055483105b610569576040517f08c379a0000000000000000000000000000000000000000000000000000000008152600401610560906112c5565b60405180910390fd5b6001600084815260200190815260200160002060010160016000858152602001908152602001600020600201548180546105a29061138b565b80601f01602080910402602001604051908101604052809291908181526020018280546105ce9061138b565b801561061b5780601f106105f05761010080835404028352916020019161061b565b820191906000526020600020905b8154815290600101906020018083116105fe57829003601f168201915b5050505050915091509150915091565b60055481565b6000600460008373ffffffffffffffffffffffffffffffffffffffff1673ffffffffffffffffffffffffffffffffffffffff168152602001908152602001600020549050919050565b60008173ffffffffffffffffffffffffffffffffffffffff1660008054906101000a900473ffffffffffffffffffffffffffffffffffffffff1673ffffffffffffffffffffffffffffffffffffffff16036106d85760019050610738565b600360008373ffffffffffffffffffffffffffffffffffffffff1673ffffffffffffffffffffffffffffffffffffffff16815260200190815260200160002060009054906101000a900460ff16156107335760029050610738565b600390505b919050565b3373ffffffffffffffffffffffffffffffffffffffff1660008054906101000a900473ffffffffffffffffffffffffffffffffffffffff1673ffffffffffffffffffffffffffffffffffffffff16146107cb576040517f08c379a00000000000000000000000000000000000000000000000000000000081526004016107c290611408565b60405180910390fd5b600060028111156107df576107de610d7d565b5b600060149054906101000a900460ff16600281111561080157610800610d7d565b5b14610841576040517f08c379a000000000000000000000000000000000000000000000000000000000815260040161083890611474565b60405180910390fd5b60405180606001604052806005548152602001828152602001600081525060016000600554815260200190815260200160002060008201518160000155602082015181600101908051906020019061089a929190610c63565b5060408201518160020155905050600560008154809291906108bb90611314565b919050555050565b60008054906101000a900473ffffffffffffffffffffffffffffffffffffffff1673ffffffffffffffffffffffffffffffffffffffff163373ffffffffffffffffffffffffffffffffffffffff161461091b57600080fd5b6001600281111561092f5761092e610d7d565b5b600060149054906101000a900460ff16600281111561095157610950610d7d565b5b1461095b57600080fd5b6002600060146101000a81548160ff0219169083600281111561098157610980610d7d565b5b0217905550565b60008054906101000a900473ffffffffffffffffffffffffffffffffffffffff1673ffffffffffffffffffffffffffffffffffffffff163373ffffffffffffffffffffffffffffffffffffffff16146109e057600080fd5b600060028111156109f4576109f3610d7d565b5b600060149054906101000a900460ff166002811115610a1657610a15610d7d565b5b14610a2057600080fd5b6001600060146101000a81548160ff02191690836002811115610a4657610a45610d7d565b5b0217905550565b60008054906101000a900473ffffffffffffffffffffffffffffffffffffffff1681565b60065481565b3373ffffffffffffffffffffffffffffffffffffffff1660008054906101000a900473ffffffffffffffffffffffffffffffffffffffff1673ffffffffffffffffffffffffffffffffffffffff1614610b05576040517f08c379a0000000000000000000000000000000000000000000000000000000008152600401610afc906114e0565b60405180910390fd5b600360008273ffffffffffffffffffffffffffffffffffffffff1673ffffffffffffffffffffffffffffffffffffffff16815260200190815260200160002060009054906101000a900460ff1615610b92576040517f08c379a0000000000000000000000000000000000000000000000000000000008152600401610b899061154c565b60405180910390fd5b60006002811115610ba657610ba5610d7d565b5b600060149054906101000a900460ff166002811115610bc857610bc7610d7d565b5b14610c08576040517f08c379a0000000000000000000000000000000000000000000000000000000008152600401610bff906115de565b60405180910390fd5b6001600360008373ffffffffffffffffffffffffffffffffffffffff1673ffffffffffffffffffffffffffffffffffffffff16815260200190815260200160002060006101000a81548160ff02191690831515021790555050565b828054610c6f9061138b565b90600052602060002090601f016020900481019282610c915760008555610cd8565b82601f10610caa57805160ff1916838001178555610cd8565b82800160010185558215610cd8579182015b82811115610cd7578251825591602001919060010190610cbc565b5b509050610ce59190610ce9565b5090565b5b80821115610d02576000816000905550600101610cea565b5090565b6000604051905090565b600080fd5b600080fd5b6000819050919050565b610d2d81610d1a565b8114610d3857600080fd5b50565b600081359050610d4a81610d24565b92915050565b600060208284031215610d6657610d65610d10565b5b6000610d7484828501610d3b565b91505092915050565b7f4e487b7100000000000000000000000000000000000000000000000000000000600052602160045260246000fd5b60038110610dbd57610dbc610d7d565b5b50565b6000819050610dce82610dac565b919050565b6000610dde82610dc0565b9050919050565b610dee81610dd3565b82525050565b6000602082019050610e096000830184610de5565b92915050565b600081519050919050565b600082825260208201905092915050565b60005b83811015610e49578082015181840152602081019050610e2e565b83811115610e58576000848401525b50505050565b6000601f19601f8301169050919050565b6000610e7a82610e0f565b610e848185610e1a565b9350610e94818560208601610e2b565b610e9d81610e5e565b840191505092915050565b610eb181610d1a565b82525050565b60006040820190508181036000830152610ed18185610e6f565b9050610ee06020830184610ea8565b9392505050565b6000602082019050610efc6000830184610ea8565b92915050565b600073ffffffffffffffffffffffffffffffffffffffff82169050919050565b6000610f2d82610f02565b9050919050565b610f3d81610f22565b8114610f4857600080fd5b50565b600081359050610f5a81610f34565b92915050565b600060208284031215610f7657610f75610d10565b5b6000610f8484828501610f4b565b91505092915050565b600080fd5b600080fd5b7f4e487b7100000000000000000000000000000000000000000000000000000000600052604160045260246000fd5b610fcf82610e5e565b810181811067ffffffffffffffff82111715610fee57610fed610f97565b5b80604052505050565b6000611001610d06565b905061100d8282610fc6565b919050565b600067ffffffffffffffff82111561102d5761102c610f97565b5b61103682610e5e565b9050602081019050919050565b82818337600083830152505050565b600061106561106084611012565b610ff7565b90508281526020810184848401111561108157611080610f92565b5b61108c848285611043565b509392505050565b600082601f8301126110a9576110a8610f8d565b5b81356110b9848260208601611052565b91505092915050565b6000602082840312156110d8576110d7610d10565b5b600082013567ffffffffffffffff8111156110f6576110f5610d15565b5b61110284828501611094565b91505092915050565b61111481610f22565b82525050565b600060208201905061112f600083018461110b565b92915050565b7f456c656374696f6e206973206e6f7420696e2070726f67726573730000000000600082015250565b600061116b601b83610e1a565b915061117682611135565b602082019050919050565b6000602082019050818103600083015261119a8161115e565b9050919050565b7f4e6f6e20617574686f726973656420757365722063616e6e6f7420766f746500600082015250565b60006111d7601f83610e1a565b91506111e2826111a1565b602082019050919050565b60006020820190508181036000830152611206816111ca565b9050919050565b7f596f75206861766520616c726561647920766f74656400000000000000000000600082015250565b6000611243601683610e1a565b915061124e8261120d565b602082019050919050565b6000602082019050818103600083015261127281611236565b9050919050565b7f496e76616c69642063616e646964617465204944000000000000000000000000600082015250565b60006112af601483610e1a565b91506112ba82611279565b602082019050919050565b600060208201905081810360008301526112de816112a2565b9050919050565b7f4e487b7100000000000000000000000000000000000000000000000000000000600052601160045260246000fd5b600061131f82610d1a565b91507fffffffffffffffffffffffffffffffffffffffffffffffffffffffffffffffff8203611351576113506112e5565b5b600182019050919050565b7f4e487b7100000000000000000000000000000000000000000000000000000000600052602260045260246000fd5b600060028204905060018216806113a357607f821691505b6020821081036113b6576113b561135c565b5b50919050565b7f4f6e6c79206f776e65722063616e206164642063616e64696461746573000000600082015250565b60006113f2601d83610e1a565b91506113fd826113bc565b602082019050919050565b60006020820190508181036000830152611421816113e5565b9050919050565b7f456c656374696f6e2068617320616c7265616479207374617274656400000000600082015250565b600061145e601c83610e1a565b915061146982611428565b602082019050919050565b6000602082019050818103600083015261148d81611451565b9050919050565b7f4f6e6c79206f776e65722063616e2061646420766f7465720000000000000000600082015250565b60006114ca601883610e1a565b91506114d582611494565b602082019050919050565b600060208201905081810360008301526114f9816114bd565b9050919050565b7f566f74657220616c726561647920616464656400000000000000000000000000600082015250565b6000611536601383610e1a565b915061154182611500565b602082019050919050565b6000602082019050818103600083015261156581611529565b9050919050565b7f566f7465722063616e277420626520616464656420616674657220656c65637460008201527f696f6e2073746172746564000000000000000000000000000000000000000000602082015250565b60006115c8602b83610e1a565b91506115d38261156c565b604082019050919050565b600060208201905081810360008301526115f7816115bb565b905091905056fea26469706673582212209c670baf0fa288bc00cf961e3509ead9fe8c63accf09afd62701568e2f117d5564736f6c634300080e0033",
  "immutableReferences": {},
  "source": "// SPDX-License-Identifier: MIT\npragma solidity >=0.4.0 <0.9.0;\n\ncontract Election {\n    enum State {\n        NotStarted,\n        InProgress,\n        Ended\n    }\n\n    struct Candidate {\n        uint256 id;\n        string name;\n        uint256 voteCount;\n    }\n\n    address public owner;\n    State public electionState;\n\n    struct Voter {\n        uint256 id;\n        string name;\n    }\n\n    mapping(uint256 => Candidate) candidates;\n    mapping(address => bool) voted;\n\n    mapping(address => bool) isVoter;\n    mapping(address => uint256) votedCand;\n\n    uint256 public candidatesCount = 0;\n\n    uint256 public votersCount = 0;\n\n    constructor() {\n        owner = msg.sender;\n        electionState = State.NotStarted;\n        addCandidate(\"BJP\");\n        addCandidate(\"INC\");\n        addCandidate(\"AAP\");\n        addVoter(0x8EC848Db2D53F323B6daf1Aa934f972210d59377);\n        addVoter(0x9A6679Ba52897401a44D736FaE313DCD2eAab3d8);\n    }\n\n    event Voted(uint256 indexed _candidateId);\n\n    function startElection() public {\n        require(msg.sender == owner);\n        require(electionState == State.NotStarted);\n        electionState = State.InProgress;\n    }\n\n    function endElection() public {\n        require(msg.sender == owner);\n        require(electionState == State.InProgress);\n        electionState = State.Ended;\n    }\n\n    function addCandidate(string memory _name) public {\n        require(owner == msg.sender, \"Only owner can add candidates\");\n        require(\n            electionState == State.NotStarted,\n            \"Election has already started\"\n        );\n\n        candidates[candidatesCount] = Candidate(candidatesCount, _name, 0);\n        candidatesCount++;\n    }\n\n    function addVoter(address _voter) public {\n        require(owner == msg.sender, \"Only owner can add voter\");\n        require(!isVoter[_voter], \"Voter already added\");\n        require(\n            electionState == State.NotStarted,\n            \"Voter can't be added after election started\"\n        );\n\n        isVoter[_voter] = true;\n    }\n\n    function getRole(address _current) public view returns (uint256) {\n        if (owner == _current) {\n            return 1;\n        } else if (isVoter[_current]) {\n            return 2;\n        } else {\n            return 3;\n        }\n    }\n\n    function vote(uint256 _candidateId) public {\n        require(\n            electionState == State.InProgress,\n            \"Election is not in progress\"\n        );\n        require(isVoter[msg.sender], \"Non authorised user cannot vote\");\n        require(!voted[msg.sender], \"You have already voted\");\n        require(\n            _candidateId >= 0 && _candidateId < candidatesCount,\n            \"Invalid candidate ID\"\n        );\n\n        candidates[_candidateId].voteCount++;\n        voted[msg.sender] = true;\n        votedCand[msg.sender] = _candidateId;\n\n        emit Voted(_candidateId);\n    }\n    function getVotedCand(address add)\n        public\n        view\n        returns (uint256)\n    {\n        return (\n            votedCand[add]\n        );\n    }\n    function getCandidateDetails(uint256 _candidateId)\n        public\n        view\n        returns (string memory, uint256)\n    {\n        require(\n            _candidateId >= 0 && _candidateId < candidatesCount,\n            \"Invalid candidate ID\"\n        );\n        return (\n            candidates[_candidateId].name,\n            candidates[_candidateId].voteCount\n        );\n    }\n}\n",
  "sourcePath": "C:\\Users\\Lenovo\\OneDrive\\Desktop\\gitDapp\\voting-dapp-main\\contracts\\Voting.sol",
  "compiler": {
    "name": "solc",
    "version": "0.8.14+commit.80d49f37.Emscripten.clang"
  },
  "schemaVersion": "3.4.13",
  "updatedAt": "2023-04-14T13:29:15.732Z",
  "networkType": "ethereum",
  "devdoc": {
    "kind": "dev",
    "methods": {},
    "version": 1
  },
  "userdoc": {
    "kind": "user",
    "methods": {},
    "version": 1
  }
}