{
  "contractName": "Election",
  "abi": [
    {
      "inputs": [],
      "stateMutability": "nonpayable",
      "type": "constructor"
    },
    {
      "anonymous": false,
      "inputs": [
        {
          "indexed": true,
          "internalType": "uint256",
          "name": "_candidateId",
          "type": "uint256"
        }
      ],
      "name": "Voted",
      "type": "event"
    },
    {
      "inputs": [],
      "name": "candidatesCount",
      "outputs": [
        {
          "internalType": "uint256",
          "name": "",
          "type": "uint256"
        }
      ],
      "stateMutability": "view",
      "type": "function",
      "constant": true
    },
    {
      "inputs": [],
      "name": "electionState",
      "outputs": [
        {
          "internalType": "enum Election.State",
          "name": "",
          "type": "uint8"
        }
      ],
      "stateMutability": "view",
      "type": "function",
      "constant": true
    },
    {
      "inputs": [],
      "name": "owner",
      "outputs": [
        {
          "internalType": "address",
          "name": "",
          "type": "address"
        }
      ],
      "stateMutability": "view",
      "type": "function",
      "constant": true
    },
    {
      "inputs": [],
      "name": "votersCount",
      "outputs": [
        {
          "internalType": "uint256",
          "name": "",
          "type": "uint256"
        }
      ],
      "stateMutability": "view",
      "type": "function",
      "constant": true
    },
    {
      "inputs": [],
      "name": "startElection",
      "outputs": [],
      "stateMutability": "nonpayable",
      "type": "function"
    },
    {
      "inputs": [],
      "name": "endElection",
      "outputs": [],
      "stateMutability": "nonpayable",
      "type": "function"
    },
    {
      "inputs": [
        {
          "internalType": "string",
          "name": "_name",
          "type": "string"
        }
      ],
      "name": "addCandidate",
      "outputs": [],
      "stateMutability": "nonpayable",
      "type": "function"
    },
    {
      "inputs": [
        {
          "internalType": "address",
          "name": "_voter",
          "type": "address"
        }
      ],
      "name": "addVoter",
      "outputs": [],
      "stateMutability": "nonpayable",
      "type": "function"
    },
    {
      "inputs": [
        {
          "internalType": "address",
          "name": "_current",
          "type": "address"
        }
      ],
      "name": "getRole",
      "outputs": [
        {
          "internalType": "uint256",
          "name": "",
          "type": "uint256"
        }
      ],
      "stateMutability": "view",
      "type": "function",
      "constant": true
    },
    {
      "inputs": [
        {
          "internalType": "uint256",
          "name": "_candidateId",
          "type": "uint256"
        }
      ],
      "name": "vote",
      "outputs": [],
      "stateMutability": "nonpayable",
      "type": "function"
    },
    {
      "inputs": [
        {
          "internalType": "address",
          "name": "add",
          "type": "address"
        }
      ],
      "name": "getIsVoted",
      "outputs": [
        {
          "internalType": "bool",
          "name": "",
          "type": "bool"
        }
      ],
      "stateMutability": "view",
      "type": "function",
      "constant": true
    },
    {
      "inputs": [
        {
          "internalType": "uint256",
          "name": "_candidateId",
          "type": "uint256"
        }
      ],
      "name": "getCandidateDetails",
      "outputs": [
        {
          "internalType": "string",
          "name": "",
          "type": "string"
        },
        {
          "internalType": "uint256",
          "name": "",
          "type": "uint256"
        }
      ],
      "stateMutability": "view",
      "type": "function",
      "constant": true
    }
  ],
  "bytecode": "0x6080604052600060045560006005553480156200001b57600080fd5b50336000806101000a81548173ffffffffffffffffffffffffffffffffffffffff021916908373ffffffffffffffffffffffffffffffffffffffff16021790555060008060146101000a81548160ff02191690836002811115620000845762000083620005ec565b5b0217905550620000cf6040518060400160405280600381526020017f424a500000000000000000000000000000000000000000000000000000000000815250620001ab60201b60201c565b620001156040518060400160405280600381526020017f494e430000000000000000000000000000000000000000000000000000000000815250620001ab60201b60201c565b6200015b6040518060400160405280600381526020017f4141500000000000000000000000000000000000000000000000000000000000815250620001ab60201b60201c565b62000180738ec848db2d53f323b6daf1aa934f972210d593776200034160201b60201c565b620001a5739a6679ba52897401a44d736fae313dcd2eaab3d86200034160201b60201c565b62000976565b3373ffffffffffffffffffffffffffffffffffffffff1660008054906101000a900473ffffffffffffffffffffffffffffffffffffffff1673ffffffffffffffffffffffffffffffffffffffff16146200023c576040517f08c379a000000000000000000000000000000000000000000000000000000000815260040162000233906200067c565b60405180910390fd5b60006002811115620002535762000252620005ec565b5b600060149054906101000a900460ff166002811115620002785762000277620005ec565b5b14620002bb576040517f08c379a0000000000000000000000000000000000000000000000000000000008152600401620002b290620006ee565b60405180910390fd5b604051806060016040528060045481526020018281526020016000815250600160006004548152602001908152602001600020600082015181600001556020820151816001019080519060200190620003169291906200053c565b506040820151816002015590505060046000815480929190620003399062000749565b919050555050565b3373ffffffffffffffffffffffffffffffffffffffff1660008054906101000a900473ffffffffffffffffffffffffffffffffffffffff1673ffffffffffffffffffffffffffffffffffffffff1614620003d2576040517f08c379a0000000000000000000000000000000000000000000000000000000008152600401620003c990620007e6565b60405180910390fd5b600360008273ffffffffffffffffffffffffffffffffffffffff1673ffffffffffffffffffffffffffffffffffffffff16815260200190815260200160002060009054906101000a900460ff161562000462576040517f08c379a0000000000000000000000000000000000000000000000000000000008152600401620004599062000858565b60405180910390fd5b60006002811115620004795762000478620005ec565b5b600060149054906101000a900460ff1660028111156200049e576200049d620005ec565b5b14620004e1576040517f08c379a0000000000000000000000000000000000000000000000000000000008152600401620004d890620008f0565b60405180910390fd5b6001600360008373ffffffffffffffffffffffffffffffffffffffff1673ffffffffffffffffffffffffffffffffffffffff16815260200190815260200160002060006101000a81548160ff02191690831515021790555050565b8280546200054a9062000941565b90600052602060002090601f0160209004810192826200056e5760008555620005ba565b82601f106200058957805160ff1916838001178555620005ba565b82800160010185558215620005ba579182015b82811115620005b95782518255916020019190600101906200059c565b5b509050620005c99190620005cd565b5090565b5b80821115620005e8576000816000905550600101620005ce565b5090565b7f4e487b7100000000000000000000000000000000000000000000000000000000600052602160045260246000fd5b600082825260208201905092915050565b7f4f6e6c79206f776e65722063616e206164642063616e64696461746573000000600082015250565b600062000664601d836200061b565b915062000671826200062c565b602082019050919050565b60006020820190508181036000830152620006978162000655565b9050919050565b7f456c656374696f6e2068617320616c7265616479207374617274656400000000600082015250565b6000620006d6601c836200061b565b9150620006e3826200069e565b602082019050919050565b600060208201905081810360008301526200070981620006c7565b9050919050565b7f4e487b7100000000000000000000000000000000000000000000000000000000600052601160045260246000fd5b6000819050919050565b600062000756826200073f565b91507fffffffffffffffffffffffffffffffffffffffffffffffffffffffffffffffff82036200078b576200078a62000710565b5b600182019050919050565b7f4f6e6c79206f776e65722063616e2061646420766f7465720000000000000000600082015250565b6000620007ce6018836200061b565b9150620007db8262000796565b602082019050919050565b600060208201905081810360008301526200080181620007bf565b9050919050565b7f566f74657220616c726561647920616464656400000000000000000000000000600082015250565b6000620008406013836200061b565b91506200084d8262000808565b602082019050919050565b60006020820190508181036000830152620008738162000831565b9050919050565b7f566f7465722063616e277420626520616464656420616674657220656c65637460008201527f696f6e2073746172746564000000000000000000000000000000000000000000602082015250565b6000620008d8602b836200061b565b9150620008e5826200087a565b604082019050919050565b600060208201905081810360008301526200090b81620008c9565b9050919050565b7f4e487b7100000000000000000000000000000000000000000000000000000000600052602260045260246000fd5b600060028204905060018216806200095a57607f821691505b60208210810362000970576200096f62000912565b5b50919050565b61163380620009866000396000f3fe608060405234801561001057600080fd5b50600436106100b45760003560e01c806359f784681161007157806359f784681461018e57806362d73eb8146101985780638da5cb5b146101a257806398c07938146101c0578063ebff1439146101de578063f4ab9adf1461020e576100b4565b80630121b93f146100b95780632280043d146100d557806327f9fd50146100f35780632d35a8a2146101245780634427673314610142578063462e91ec14610172575b600080fd5b6100d360048036038101906100ce9190610d19565b61022a565b005b6100dd6104be565b6040516100ea9190610dbd565b60405180910390f35b61010d60048036038101906101089190610d19565b6104d1565b60405161011b929190610e80565b60405180910390f35b61012c6105e7565b6040516101399190610eb0565b60405180910390f35b61015c60048036038101906101579190610f29565b6105ed565b6040516101699190610eb0565b60405180910390f35b61018c6004803603810190610187919061108b565b6106b0565b005b610196610836565b005b6101a06108fb565b005b6101aa6109c0565b6040516101b791906110e3565b60405180910390f35b6101c86109e4565b6040516101d59190610eb0565b60405180910390f35b6101f860048036038101906101f39190610f29565b6109ea565b6040516102059190611119565b60405180910390f35b61022860048036038101906102239190610f29565b610a40565b005b6001600281111561023e5761023d610d46565b5b600060149054906101000a900460ff1660028111156102605761025f610d46565b5b146102a0576040517f08c379a000000000000000000000000000000000000000000000000000000000815260040161029790611180565b60405180910390fd5b600360003373ffffffffffffffffffffffffffffffffffffffff1673ffffffffffffffffffffffffffffffffffffffff16815260200190815260200160002060009054906101000a900460ff1661032c576040517f08c379a0000000000000000000000000000000000000000000000000000000008152600401610323906111ec565b60405180910390fd5b600260003373ffffffffffffffffffffffffffffffffffffffff1673ffffffffffffffffffffffffffffffffffffffff16815260200190815260200160002060009054906101000a900460ff16156103b9576040517f08c379a00000000000000000000000000000000000000000000000000000000081526004016103b090611258565b60405180910390fd5b600081101580156103cb575060045481105b61040a576040517f08c379a0000000000000000000000000000000000000000000000000000000008152600401610401906112c4565b60405180910390fd5b60016000828152602001908152602001600020600201600081548092919061043190611313565b91905055506001600260003373ffffffffffffffffffffffffffffffffffffffff1673ffffffffffffffffffffffffffffffffffffffff16815260200190815260200160002060006101000a81548160ff021916908315150217905550807f7f511e347bf51eed3be100b3194247d5207f05f3b33de7d31e3e8ee73199a04960405160405180910390a250565b600060149054906101000a900460ff1681565b606060008083101580156104e6575060045483105b610525576040517f08c379a000000000000000000000000000000000000000000000000000000000815260040161051c906112c4565b60405180910390fd5b60016000848152602001908152602001600020600101600160008581526020019081526020016000206002015481805461055e9061138a565b80601f016020809104026020016040519081016040528092919081815260200182805461058a9061138a565b80156105d75780601f106105ac576101008083540402835291602001916105d7565b820191906000526020600020905b8154815290600101906020018083116105ba57829003601f168201915b5050505050915091509150915091565b60045481565b60008173ffffffffffffffffffffffffffffffffffffffff1660008054906101000a900473ffffffffffffffffffffffffffffffffffffffff1673ffffffffffffffffffffffffffffffffffffffff160361064b57600190506106ab565b600360008373ffffffffffffffffffffffffffffffffffffffff1673ffffffffffffffffffffffffffffffffffffffff16815260200190815260200160002060009054906101000a900460ff16156106a657600290506106ab565b600390505b919050565b3373ffffffffffffffffffffffffffffffffffffffff1660008054906101000a900473ffffffffffffffffffffffffffffffffffffffff1673ffffffffffffffffffffffffffffffffffffffff161461073e576040517f08c379a000000000000000000000000000000000000000000000000000000000815260040161073590611407565b60405180910390fd5b6000600281111561075257610751610d46565b5b600060149054906101000a900460ff16600281111561077457610773610d46565b5b146107b4576040517f08c379a00000000000000000000000000000000000000000000000000000000081526004016107ab90611473565b60405180910390fd5b60405180606001604052806004548152602001828152602001600081525060016000600454815260200190815260200160002060008201518160000155602082015181600101908051906020019061080d929190610c2c565b50604082015181600201559050506004600081548092919061082e90611313565b919050555050565b60008054906101000a900473ffffffffffffffffffffffffffffffffffffffff1673ffffffffffffffffffffffffffffffffffffffff163373ffffffffffffffffffffffffffffffffffffffff161461088e57600080fd5b600160028111156108a2576108a1610d46565b5b600060149054906101000a900460ff1660028111156108c4576108c3610d46565b5b146108ce57600080fd5b6002600060146101000a81548160ff021916908360028111156108f4576108f3610d46565b5b0217905550565b60008054906101000a900473ffffffffffffffffffffffffffffffffffffffff1673ffffffffffffffffffffffffffffffffffffffff163373ffffffffffffffffffffffffffffffffffffffff161461095357600080fd5b6000600281111561096757610966610d46565b5b600060149054906101000a900460ff16600281111561098957610988610d46565b5b1461099357600080fd5b6001600060146101000a81548160ff021916908360028111156109b9576109b8610d46565b5b0217905550565b60008054906101000a900473ffffffffffffffffffffffffffffffffffffffff1681565b60055481565b6000600260008373ffffffffffffffffffffffffffffffffffffffff1673ffffffffffffffffffffffffffffffffffffffff16815260200190815260200160002060009054906101000a900460ff169050919050565b3373ffffffffffffffffffffffffffffffffffffffff1660008054906101000a900473ffffffffffffffffffffffffffffffffffffffff1673ffffffffffffffffffffffffffffffffffffffff1614610ace576040517f08c379a0000000000000000000000000000000000000000000000000000000008152600401610ac5906114df565b60405180910390fd5b600360008273ffffffffffffffffffffffffffffffffffffffff1673ffffffffffffffffffffffffffffffffffffffff16815260200190815260200160002060009054906101000a900460ff1615610b5b576040517f08c379a0000000000000000000000000000000000000000000000000000000008152600401610b529061154b565b60405180910390fd5b60006002811115610b6f57610b6e610d46565b5b600060149054906101000a900460ff166002811115610b9157610b90610d46565b5b14610bd1576040517f08c379a0000000000000000000000000000000000000000000000000000000008152600401610bc8906115dd565b60405180910390fd5b6001600360008373ffffffffffffffffffffffffffffffffffffffff1673ffffffffffffffffffffffffffffffffffffffff16815260200190815260200160002060006101000a81548160ff02191690831515021790555050565b828054610c389061138a565b90600052602060002090601f016020900481019282610c5a5760008555610ca1565b82601f10610c7357805160ff1916838001178555610ca1565b82800160010185558215610ca1579182015b82811115610ca0578251825591602001919060010190610c85565b5b509050610cae9190610cb2565b5090565b5b80821115610ccb576000816000905550600101610cb3565b5090565b6000604051905090565b600080fd5b600080fd5b6000819050919050565b610cf681610ce3565b8114610d0157600080fd5b50565b600081359050610d1381610ced565b92915050565b600060208284031215610d2f57610d2e610cd9565b5b6000610d3d84828501610d04565b91505092915050565b7f4e487b7100000000000000000000000000000000000000000000000000000000600052602160045260246000fd5b60038110610d8657610d85610d46565b5b50565b6000819050610d9782610d75565b919050565b6000610da782610d89565b9050919050565b610db781610d9c565b82525050565b6000602082019050610dd26000830184610dae565b92915050565b600081519050919050565b600082825260208201905092915050565b60005b83811015610e12578082015181840152602081019050610df7565b83811115610e21576000848401525b50505050565b6000601f19601f8301169050919050565b6000610e4382610dd8565b610e4d8185610de3565b9350610e5d818560208601610df4565b610e6681610e27565b840191505092915050565b610e7a81610ce3565b82525050565b60006040820190508181036000830152610e9a8185610e38565b9050610ea96020830184610e71565b9392505050565b6000602082019050610ec56000830184610e71565b92915050565b600073ffffffffffffffffffffffffffffffffffffffff82169050919050565b6000610ef682610ecb565b9050919050565b610f0681610eeb565b8114610f1157600080fd5b50565b600081359050610f2381610efd565b92915050565b600060208284031215610f3f57610f3e610cd9565b5b6000610f4d84828501610f14565b91505092915050565b600080fd5b600080fd5b7f4e487b7100000000000000000000000000000000000000000000000000000000600052604160045260246000fd5b610f9882610e27565b810181811067ffffffffffffffff82111715610fb757610fb6610f60565b5b80604052505050565b6000610fca610ccf565b9050610fd68282610f8f565b919050565b600067ffffffffffffffff821115610ff657610ff5610f60565b5b610fff82610e27565b9050602081019050919050565b82818337600083830152505050565b600061102e61102984610fdb565b610fc0565b90508281526020810184848401111561104a57611049610f5b565b5b61105584828561100c565b509392505050565b600082601f83011261107257611071610f56565b5b813561108284826020860161101b565b91505092915050565b6000602082840312156110a1576110a0610cd9565b5b600082013567ffffffffffffffff8111156110bf576110be610cde565b5b6110cb8482850161105d565b91505092915050565b6110dd81610eeb565b82525050565b60006020820190506110f860008301846110d4565b92915050565b60008115159050919050565b611113816110fe565b82525050565b600060208201905061112e600083018461110a565b92915050565b7f456c656374696f6e206973206e6f7420696e2070726f67726573730000000000600082015250565b600061116a601b83610de3565b915061117582611134565b602082019050919050565b600060208201905081810360008301526111998161115d565b9050919050565b7f4e6f6e20617574686f726973656420757365722063616e6e6f7420766f746500600082015250565b60006111d6601f83610de3565b91506111e1826111a0565b602082019050919050565b60006020820190508181036000830152611205816111c9565b9050919050565b7f596f75206861766520616c726561647920766f74656400000000000000000000600082015250565b6000611242601683610de3565b915061124d8261120c565b602082019050919050565b6000602082019050818103600083015261127181611235565b9050919050565b7f496e76616c69642063616e646964617465204944000000000000000000000000600082015250565b60006112ae601483610de3565b91506112b982611278565b602082019050919050565b600060208201905081810360008301526112dd816112a1565b9050919050565b7f4e487b7100000000000000000000000000000000000000000000000000000000600052601160045260246000fd5b600061131e82610ce3565b91507fffffffffffffffffffffffffffffffffffffffffffffffffffffffffffffffff82036113505761134f6112e4565b5b600182019050919050565b7f4e487b7100000000000000000000000000000000000000000000000000000000600052602260045260246000fd5b600060028204905060018216806113a257607f821691505b6020821081036113b5576113b461135b565b5b50919050565b7f4f6e6c79206f776e65722063616e206164642063616e64696461746573000000600082015250565b60006113f1601d83610de3565b91506113fc826113bb565b602082019050919050565b60006020820190508181036000830152611420816113e4565b9050919050565b7f456c656374696f6e2068617320616c7265616479207374617274656400000000600082015250565b600061145d601c83610de3565b915061146882611427565b602082019050919050565b6000602082019050818103600083015261148c81611450565b9050919050565b7f4f6e6c79206f776e65722063616e2061646420766f7465720000000000000000600082015250565b60006114c9601883610de3565b91506114d482611493565b602082019050919050565b600060208201905081810360008301526114f8816114bc565b9050919050565b7f566f74657220616c726561647920616464656400000000000000000000000000600082015250565b6000611535601383610de3565b9150611540826114ff565b602082019050919050565b6000602082019050818103600083015261156481611528565b9050919050565b7f566f7465722063616e277420626520616464656420616674657220656c65637460008201527f696f6e2073746172746564000000000000000000000000000000000000000000602082015250565b60006115c7602b83610de3565b91506115d28261156b565b604082019050919050565b600060208201905081810360008301526115f6816115ba565b905091905056fea2646970667358221220fc2d5078323810f70ab54a2ad43b12eab13e387d2098ded2614b7c7c69b4e28a64736f6c634300080e0033",
  "immutableReferences": {},
  "source": "// SPDX-License-Identifier: MIT\npragma solidity >=0.4.0 <0.9.0;\n\ncontract Election {\n    enum State {\n        NotStarted,\n        InProgress,\n        Ended\n    }\n\n    struct Candidate {\n        uint256 id;\n        string name;\n        uint256 voteCount;\n    }\n\n    address public owner;\n    State public electionState;\n\n    struct Voter {\n        uint256 id;\n        string name;\n    }\n\n    mapping(uint256 => Candidate) candidates;\n    mapping(address => bool) voted;\n\n    mapping(address => bool) isVoter;\n\n    uint256 public candidatesCount = 0;\n\n    uint256 public votersCount = 0;\n\n    constructor() {\n        owner = msg.sender;\n        electionState = State.NotStarted;\n        addCandidate(\"BJP\");\n        addCandidate(\"INC\");\n        addCandidate(\"AAP\");\n        addVoter(0x8EC848Db2D53F323B6daf1Aa934f972210d59377);\n        addVoter(0x9A6679Ba52897401a44D736FaE313DCD2eAab3d8);\n    }\n\n    event Voted(uint256 indexed _candidateId);\n\n    function startElection() public {\n        require(msg.sender == owner);\n        require(electionState == State.NotStarted);\n        electionState = State.InProgress;\n    }\n\n    function endElection() public {\n        require(msg.sender == owner);\n        require(electionState == State.InProgress);\n        electionState = State.Ended;\n    }\n\n    function addCandidate(string memory _name) public {\n        require(owner == msg.sender, \"Only owner can add candidates\");\n        require(\n            electionState == State.NotStarted,\n            \"Election has already started\"\n        );\n\n        candidates[candidatesCount] = Candidate(candidatesCount, _name, 0);\n        candidatesCount++;\n    }\n\n    function addVoter(address _voter) public {\n        require(owner == msg.sender, \"Only owner can add voter\");\n        require(!isVoter[_voter], \"Voter already added\");\n        require(\n            electionState == State.NotStarted,\n            \"Voter can't be added after election started\"\n        );\n\n        isVoter[_voter] = true;\n    }\n\n    function getRole(address _current) public view returns (uint256) {\n        if (owner == _current) {\n            return 1;\n        } else if (isVoter[_current]) {\n            return 2;\n        } else {\n            return 3;\n        }\n    }\n\n    function vote(uint256 _candidateId) public {\n        require(\n            electionState == State.InProgress,\n            \"Election is not in progress\"\n        );\n        require(isVoter[msg.sender], \"Non authorised user cannot vote\");\n        require(!voted[msg.sender], \"You have already voted\");\n        require(\n            _candidateId >= 0 && _candidateId < candidatesCount,\n            \"Invalid candidate ID\"\n        );\n\n        candidates[_candidateId].voteCount++;\n        voted[msg.sender] = true;\n\n        emit Voted(_candidateId);\n    }\n    function getIsVoted(address add)\n        public\n        view\n        returns (bool)\n    {\n        return (\n            voted[add]\n        );\n    }\n    function getCandidateDetails(uint256 _candidateId)\n        public\n        view\n        returns (string memory, uint256)\n    {\n        require(\n            _candidateId >= 0 && _candidateId < candidatesCount,\n            \"Invalid candidate ID\"\n        );\n        return (\n            candidates[_candidateId].name,\n            candidates[_candidateId].voteCount\n        );\n    }\n}\n",
  "sourcePath": "C:\\Users\\Lenovo\\OneDrive\\Desktop\\gitDapp\\voting-dapp-main\\contracts\\Voting.sol",
  "compiler": {
    "name": "solc",
    "version": "0.8.14+commit.80d49f37.Emscripten.clang"
  },
  "schemaVersion": "3.4.13",
  "updatedAt": "2023-04-14T07:16:41.284Z",
  "networkType": "ethereum",
  "devdoc": {
    "kind": "dev",
    "methods": {},
    "version": 1
  },
  "userdoc": {
    "kind": "user",
    "methods": {},
    "version": 1
  }
}